:040000006F40E02449
:100004000000000000000000080200000A020000D6
:10001400000000004C42000000000000000000004E
:100024004C4200004C4200000000000000000000B0
:100034004C420000000000004C42000000000000A0
:100044004C4200004C4200004C4200004C42000074
:100054004C4200004C4200004C4200004C42000064
:100064004C4200004C4200004C4200004C42000054
:100074004C4200004C4200004C4200004C42000044
:100084004C4200004C4200004C4200004C42000034
:100094004C4200004C4200004C4200004C42000024
:1000A4004C4200004C4200004C4200004C42000014
:1000B4004C4200004C4200004C4200004607000045
:1000C400DE0A00004C4200004C4200004C4200009A
:1000D4004C420000600B00004C4200004C42000007
:1000E4004C4200004C4200004C4200004C420000D4
:0C00F4004C4200004C4200004C42000056
:10010000397101436EC619A0397141536AC866CA74
:1001100062CC5ECE19A0397101535AD056D252D456
:100120004ED64AD826DA22DC06DE330161408282CE
:1001300041114AC026C222C406C68282B24D410184
:10014000024D924C224CB24B4101024B924A224A40
:10015000B2494101024992442244B24041018280A5
:100160003D432A876373C3029377F700BDEFADE584
:10017000937606FF3D8ABA960CC34CC30CC74CC796
:100180004107E36BD7FE11E28280B306C3408A06C3
:100190009702000096966780A6002307B700A30683
:1001A000B7002306B700A305B7002305B700A304D3
:1001B000B7002304B700A303B7002303B700A302CB
:1001C000B7002302B700A301B7002301B700A300C3
:1001D000B7002300B700828093F5F50F9396850052
:1001E000D58D93960501D58D61B79396270097021B
:1001F000000096968682E78086FA9680C1171D8F4A
:100200003E96E374C3F8A5B701A0B707EFBE37E782
:1002100000E0938707083CC701A01C311821A20702
:100220005D8F3C212831C207D98F62055D8D8280A8
:10023000EFF29FED411185472A8AAE8A328C02C2C5
:100240003EC40144414B930B8004A1499314240004
:10025000B30C9A0083A70C0085CBE29488400DC5AF
:10026000C20733D98A40C183137919007C826302A3
:1002700009025EC64C00EF40C04E6317090083D5EB
:100280000C008840EF40E05F0504E31134FD4101BC
:1002900045BD5AC6C5B783C7218393F7F70FA1CFD2
:1002A000EFF29FE6BA8A368AB2892E89AA8401447F
:1002B000854B214B13182400B38704018C4385C957
:1002C000B3578940858B85E733578A40B3978B00B6
:1002D000058BB3F7370119C393B717005698032559
:1002E0000800C2053336F000C181EF40C05A050452
:1002F000E31264FDB1B5828083C7218393F7F70FC2
:10030000A1C7EFF2FFE283C6618303C65183B7073B
:10031000002083C5270C370700201D651307070041
:100320001305459A8D3F83C6918303C68183B70722
:10033000002083C5370C370700201D65130707020F
:100340001305459C893F39B58280EFF2DFDC137AD3
:10035000F50337150140B1651305058037140140D9
:10036000EF402052954413090480FD59B3579A4039
:10037000858B89654A85A9C3EF40604F91654A85A1
:10038000EF40E04E91654A85FD14EF40804FE39FBA
:1003900034FD130504808965EF40A04EA165130567
:1003A0000480EF40C04C010001000100A16513056D
:1003B0000480EF40004D51BBEF40A04CC1B7EFF2BD
:1003C0003FD7411185451305C00202C202C402C6CF
:1003D000EF40D034EF40E05CB707002083C5270C26
:1003E000370600201D65130606001305459A89355A
:1003F000B707002083C5370C370600201D6513069C
:1004000006021305459C2D3537140140930700085B
:1004100085444C00130504807C8226C402C6EF404C
:1004200040344C00130504C06482EF408033894798
:100430004C00130504C07C82EF40A0329307000CEF
:100440007C824C00F147130504C03EC6EF4060318A
:10045000F9777C82C1473EC64C008D471305048066
:100460003EC4EF400030B96513050480EF406041A1
:100470000145E13D4101F9B983C7218393F7F70FA6
:1004800081E7238006008280EFF21FC8BA8AB68413
:10049000328AAE892A89238006000144854B214B8C
:1004A000931724003307F9000C439DC533D78940C7
:1004B000058B1DC3D6978843C205C181EF408039A3
:1004C000B3578A40858B99C31335150011C5982001
:1004D000B3978B00D98F9CA00504E31364FD8DB105
:1004E000EFF21FC583C7218393F7F70F91E7238AA4
:1004F0000182A38B0182B9B903C66183B7070020CB
:1005000083C5270C370700201D6513070700938656
:1005100041831305459A8D3703C69183B7070020A1
:1005200083C5370C370700201D6513070702938624
:1005300071831305459C89377DBFEFF27FBF0111A1
:100540001306000281450A852139854513050020DF
:10055000EF40D01C316537240140EF40300F1305C8
:100560000440EF303057B7070E003EC68A858547F6
:1005700013050440230AF10002C002C202C402C8EB
:10058000EF30B059854513050440EF30705E81456A
:1005900013050440EF30B06F13050440EF30505E98
:1005A000930404402685EF30505E6DFD1305044032
:1005B00037240140EF30F05D930404402685EF308E
:1005C000F05D6DFD13050440EF30F06D2390A182C6
:1005D000056149B6EFF2DFB537240140AA8595469B
:1005E000054613050440EF30705D85451305044052
:1005F000EF30505B9304044089452685EF30106846
:1006000065DD894513050440EF30F06713050440AC
:10061000EF30506683D701820567AA973E85C207EF
:10062000C18763C4E70005657D159317050163D392
:10063000070001454205418131BEEFF27FAF83C71C
:10064000218393F7F70F13892182938441821384C6
:10065000818281EB23100900239004002310040001
:10066000D5BC2545853F2310A9002145A5378AA083
:100670001D458D370AA0EDB7EFF29FAB7971854527
:10068000254502CA02CC02CE02D002D202D402D642
:1006900002C602C8EF409008854537052000EF40AC
:1006A000D0093714014085449307000471494C0870
:1006B000130504C0FC8226CC4ACEEF40800A930783
:1006C00000084C08130504C0FC82375400404ACE91
:1006D000EF40200913050440EF40A053B727060060
:1006E000938707A83ED0B707FFBF3ED2B7070004E5
:1006F000938707043ED40C1091671305044023161A
:10070000F102EF40205405469305007013050440A4
:10071000EF4040649307F00268007C8626C82307F8
:100720000100EF40806C9307001368007C8626C8A8
:1007300023070100EF40606B854513050440EF403F
:10074000E05F456101BC411122C626C43754004018
:10075000B704000293852400130504404AC2EF4009
:10076000A0650DC9B705040013050440EF40A06162
:1007700009E5A3860182A387018237550040E14540
:1007800013050540EF40E05E3244A24412494101A6
:10079000730020303709000693050904130504404F
:1007A000EF4080616309051C13050440EF40E05BE6
:1007B0009387D1829823AA851377F70F1384C18278
:1007C00009EF930505FB08A0054793F5F50F98A3DE
:1007D00093B5F507A387B18245BF1C201307F0042A
:1007E000637FF7041C201307E00C636AF7041C20E6
:1007F0009386118393F7F70F138707FB1376F70F91
:1008000019E2238006009822630AE600238006008E
:100810001C20850793F7F70F1CA0BDB703C5018304
:100820001307F007938717FB3305A7021387418649
:1008300093F7F70F2A9732970CA39CA2D1BF1C20E5
:100840001307000D6312F7069307500AE392F5FCB5
:10085000138611831C221307F007E31BF7FA938713
:10086000E18298231377F70F45F737070020130726
:10087000070C14239305F00F93F6F60FE39AB6F8DE
:10088000B705002083C5150CE394B6F89385018362
:10089000942193F6F60F13C5160088A123000600D5
:1008A00014A3054798A3ADB718209307F00263F986
:1008B000E70418209306000463E4E604182063F4B8
:1008C000E7021C201307F003636FF7001C203D476D
:1008D000938707FD93F7F70FE36CF7F2138741BE99
:1008E000BA978CA335B71C2013070004E312F7F264
:1008F000938741BE238807000547A38FE18209BF84
:100900001C205147F91793F7F70FE363F7F01D67C2
:100910008A0713074787BA979C438287A38AB182C5
:10092000E13AFDB5238CB182E5BF238BB182CDBF07
:10093000A38CB182F5B7B7070020370600201D65EC
:100940002381B70C130606001305459AEFF05F8E5E
:10095000C1B5B7070020370600201D65A381B70C7D
:10096000130606021305459CD5B713F5F503A389B5
:10097000A182E13A71BD9305090813050440EF40D7
:10098000A043630505109387C1829C231307E002EF
:100990001384C18293F7F70F6368F70E1D678A0708
:1009A0001307878CBA979C43828783C54183375549
:1009B000004013050540EF40003B99BD83C571839E
:1009C000FDB783C55183E5B783C58183CDB783C5A3
:1009D0006183F1BF83C59183D9BFB707002083C569
:1009E000270CF1B7B707002083C5370CC9B783D5EB
:1009F0002182918193F5F50F5DBF83C52182BD8969
:100A00007DB783D54182F5B783C54182CDBF83D5FC
:100A10008182C5B783C58182DDB783C5318341BF7C
:100A200083C5218393F5F50F93B5150093850503D1
:100A3000BDBF83C54184A5BF83C551848DBF83C518
:100A40006184B5B783C571849DB783C5818485B73B
:100A500083C59184A9BF83C5A18491BF83C5B18497
:100A6000B9B783C5C184A1B783C5D18489B783C50C
:100A7000E18435BF83C5F1841DBF83C5A18205BF55
:100A800083D5A182A18125B7814515B7938504013E
:100A900013050440EF4040320DC183560440835794
:100AA000044013070440F58F2310F440835744415A
:100AB000A3860182A3870182C1B9938544001305EF
:100AC0000440EF40602FE30105CCD14513050440FD
:100AD000EF40202A13050440EF40202975B1411151
:100AE00022C626C437540040B70400019385044051
:100AF00013050440EF40402C15CD938504401305A9
:100B00000440EF40602D014723860182A3860182C5
:100B10009387F18209CBA38F018298231377F70F74
:100B200019C3A3880182324423800700A2444101F3
:100B3000730020309385041013050440EF40C02952
:100B40009385042013050440EF400029B7150001E8
:100B50009385058013050440EF40002805476DB7D5
:100B6000411122C6374401409305505213050480B9
:100B7000EF4000531DC513050480EF40405113871B
:100B8000A1831E2383D6C183850793F7F703638A66
:100B9000D7001223938641B61375F50FB29688A23B
:100BA0001EA33244410173002030B7F7FF1F03A793
:100BB000877E1386418418C203A7C77E93868184EB
:100BC00098C283A5077F1387C1840CC383A5877E42
:100BD0000CC203A6C77E90C283A7077F1CC3828076
:100BE000B7F7FF1F03D7077E2395E1828280EFF2DC
:100BF0008FD2AA84AE8932899307800873B00780A8
:100C00000F100000EF30102A2685EF30702C1306ED
:100C100000109305F00F138581BFEFF06FD481476B
:100C200013070010938681BF63E42703938581BF78
:100C30002685EF30D02CEF30D028814713070010E5
:100C4000138481BF6304F900639EE700054535A066
:100C5000E38EE7FC3386F9000C223386F600850725
:100C60000CA2D9B7B38697003306F4009422102261
:100C70006314D6008507F9B701459307800873A070
:100C800007806FF08FCCEFF2AFCA2A8913060010ED
:100C90009305F00F13854196EFF08FCCCA8541463E
:100CA00013854196EF4070119307A00593844196F8
:100CB0001306001093854196378500089CA8053FD0
:100CC0006FF04FC93786B8ED8146FD5713060632DF
:100CD0001397060141836365B70013C5F7FF828050
:100CE0003307D5001823B98F214713D81700858BF8
:100CF00091C3B2877D171377F70FB347F80075F7E5
:100D00008506F9B7EFF2CFC24111114693854181B3
:100D10002A84EF40500881442DE5582085478144BE
:100D20006311F7067C205430A207D58FC207C18714
:100D30006399E7041305B407EFF02FCE2A899305D2
:100D4000B00722854137631EA90283A7C18403A788
:100D5000818483A6418431464C001305340136C298
:100D60003AC43EC6EF40300309ED9D659306B003DB
:100D70002286938545981305B403EF30C03693342B
:100D80001500268541016FF0EFBC81471307F0077E
:100D9000B306F5009022B386F500850790A2E3998B
:100DA000E7FE05458280EFF2AFB819712A89AE845B
:100DB000130600109305F00F138541A6EFF04FBA0C
:100DC0001306F007A685138541A6EF40007F1306A2
:100DD0000010938541A64A85193D0DC18A854A8533
:100DE0006D371306F007A6850A85EF40C07A814764
:100DF00001E50A85013FAA8713F5170009616FF025
:100E00006FB59387F18398231377F70F21C3EFF220
:100E10002FB22380070001118147138741BEC146CD
:100E20003306F7000C2270003E960CA28507E3996A
:100E3000D7FE6800230E0100B93583C7218393F7DD
:100E4000F70F2380F18405616FF0CFB08280EFF25D
:100E50002FAE1971378400088A85130504203537B1
:100E60000A854D3519E58A8513050430393F0A8511
:100E7000513D09616FF00FAEEFF2EFA9117101441E
:100E80009307800873B007800F1000001386E1827B
:100E90001C2293F7F70F95CB370700201307070C99
:100EA0001423854563E4D50CB70600209386160C01
:100EB0008C221305F00F631BB50A0023FD550CA30C
:100EC0001374F40F2300060080A213078008732018
:100ED000078001476385070E9306F0073306D402A7
:100EE00093874186B2973386E7000C223306E100F0
:100EF00005070CA2E319D7FE0A85293551CD3785A0
:100F000000080C011305052049350801E53B2A8A34
:100F1000014911C51305710BEFF02FB02A893785F0
:100F200000080C01130505308D350801E13BAA8945
:100F3000814411C51305710BEFF02FAEAA84130580
:100F40007103EFF08FAD630F0A0663830902B38765
:100F500024416343F000CA84058D635FA002378596
:100F60000008635DF0001305052019A88147B1BF93
:100F7000330525416352A00237850008130505306B
:100F80008A85153511C9E1359387218388A39C2370
:100F900093F7F70F2380F1849307800873B00780DD
:100FA0000F100000B70700209387170C98236314D5
:100FB000E4007D5798A39307800873A00780116110
:100FC0006FF0AF9863850900058DE357A0FC378566
:100FD000000851BFEFF2CF95138441BA9307000286
:100FE000030704006301F706B775000019469385EF
:100FF000C5A02285EF40A07AAA8421E513096400E8
:101000004A85EF40A078C1476311F5042546954510
:10101000C146B3079400FC23138707FD1377F70F2E
:10102000637CE60293F7F7FD9387F7FB93F7F70FDF
:1010300063F4F50237750000A685130585A2EF401D
:10104000E0626FF02F91050461BF37750000130552
:1010500045A1EF40E072F5B78504E39CD4FACA8756
:101060005904154698239306F7F993F6F60F63642F
:10107000D600011798A38507E39687FE4A85EFF00F
:101080009FC083C7218393F7F70F2380F18419C58D
:1010900037750000CA851305C5A355B7377500001D
:1010A0001305C5A47DB7EFF20F87138941B6B54A82
:1010B000938441BA9386C1839387A1839A229E2306
:1010C000C207C1836394E7006FF02F889E221384C8
:1010D000E183CA9798239E221377F70F850793F72A
:1010E000F7039EA263055701A947631AF7001C2066
:1010F000A69723800700F93D2300040065BF1C204C
:101100009306E003E3E8F6FA1C2093F7F70F9386C3
:10111000170093F6F60FA69714A098A361BFEFF2FD
:101120002F8101110545EF30F04BEF304009EF30D2
:10113000F07A716513050520EF30F07C93075013AA
:10114000054468007C8622C823170100EF30F0496F
:101150003745014005469305505213050580EF3091
:10116000306F85450545EF30705B370530008545AC
:1011700013050540EF30C07385452165EF3040739E
:10118000854513050002EF307059E08222CC3714F8
:101190000140C147130504404C083ECE231B01000B
:1011A000EF30205C130504408545EF30806D8947A2
:1011B000130504404C08FC82EF30A05A8945130502
:1011C0000440EF30006CEFF08F9FEFF00FB7EFF0BF
:1011D000AFCAEFF09F9DEFF0BFA0EFF05FC793871E
:1011E000218388A39C231384018493F7F70F1CA009
:1011F00083A6C18403A6818483A54184377500003A
:101200001305459EEF4080461C2093F7F70F8DCFC6
:10121000377500001305859FEF4080562549EFF094
:10122000BFC513846182EFF0DFBDB53DEFF04FAB7A
:101230001E208507C207C1831EA0E372F9FEEFF0EE
:10124000CFBF23100400E1BF37750000130505A0D0
:10125000E1B71C3138210821A2074207D98F5D8DE3
:1012600082801C311821A2075D8F3C212831C207E2
:10127000D98F62055D8D8280EFE29FEBAA84D5371E
:101280002A8413854400F13FAA8522856FE09FECF4
:1012900093D785000CA11CB193D70501E1813CA136
:1012A0002CB18280EFE2DFE841112A8993142600F5
:1012B0000144338585002EC66D37B307890088C386
:1012C0001104B245E31794FE41016FE0BFE8EFE27D
:1012D0009FE42A89AE89931426000144B3878900CC
:1012E0008C433305890011046537E31994FE6FE0E0
:1012F000DFE5EFE25FE22E8AAA84BD3F2A895285AC
:101300002E849D3F3349A900138584002D8CAD3771
:10131000AA8913058A00AE84853733C5A900A58D37
:1013200033652501C18D6FE05FE2EFE2DFDE2A89E0
:10133000AE89C1372E84AA8493850901130509015A
:101340004D3F458DC18D6FE05FE0930785022320FF
:1013500005001105E31DF5FE828085471CC193073A
:1013600045001305850223A007009107E39DA7FE12
:101370008280814713078002B386F5009042B3064E
:10138000F500910790C2E399E7FE828081479306BA
:1013900080023387F50018433306F50091073307C1
:1013A000E04018C2E397D7FE82808147930680020F
:1013B0003387F500B308F600184383A80800330804
:1013C000F500910746972320E800E393D7FE82803B
:1013D0008147930680023387F500B308F60018436F
:1013E00083A808003308F50091073307174123202D
:1013F000E800E392D7FE828041113306C04032C636
:101400009C411841B246B98FF58FB98F1CC1DC41A0
:101410005841B246B98FF58FB98F5CC19C451845CC
:10142000B246B98FF58FB98F1CC5DC455845B24619
:10143000B98FF58FB98F5CC518499C49B246B98FF1
:10144000F58FB98F1CC95849DC49B246B98FF58F61
:10145000B98F5CC9184D9C4DB246B98FF58FB98FC5
:101460001CCD584DDC4DB246B98FF58FB98F5CCD90
:1014700018519C51B246B98FF58FB98F1CD1585174
:10148000DC51B246B98FF58FB98F5CD141018280B2
:10149000EFE29FC74111AA842E852E8432C6D13334
:1014A0002A8B130544007533131D65001305740062
:1014B0004D33131C55001305A400613B931B3500ED
:1014C0001305D4007933931A250013050401513B09
:1014D000AA8C13054401B53B131A7500130574015A
:1014E0008D3B931955001305A401EFF09FD61319F6
:1014F00045001305D401EFF0DFD53246B7070001F0
:1015000037070002938EF7FFB3DECE403306EB00C1
:10151000B33666019A066982558EB305CD009353A2
:101520006600131EA6013386EA00B33656013383E4
:10153000F5009A066982558E33BDA501B336B30016
:10154000330ECB41EA96333BCB019E06B30370408A
:1015500013539301B38363419318A601135B660091
:1015600033E3660066963308F600931693016293A0
:10157000B302E300B33C9601B3FEAE003335C800BE
:10158000958D6695B336830133BC62001E05369C8B
:1015900013589801336805011A0C93D2A201131550
:1015A0009801B3625C005298330FE800098E33351E
:1015B0004801338A5B00B30FFA00B3360F01B33C26
:1015C0007A01AA96B3BB4F019A06E69B135FAF015F
:1015D00033EFE6019E0B93DF9F013384E901B3886B
:1015E0001A41B3EFFB01333C3401B389F801B3BABC
:1015F0001A01B3B61901B3865641B3866641330B5F
:10160000F40033358B006295B388E9001E05135B47
:101610009B01336B650133B53801AA96B30A6901A2
:101620009A0693D8A801B3E81601B386EA00B3BBC3
:101630002A0133B956015E991A09E9828A0EB36606
:10164000D9003389DE00CA973335D901B3BE2701EB
:10165000AA9E9E0EE583B3E7FE00CD4E3385FE02C3
:10166000EA02E60F6A0F660BEA06330464413303AD
:101670005340330AFA414696B3BEFE022A9E729741
:101680003335AE00E6073308E841B386DA40B307E6
:10169000F94023A4640023A64401F6931E95B333B6
:1016A000C7011E951A056983498F1315A701BA95BD
:1016B0001397A801330EAE40B389E94023A0C401BB
:1016C000CCC023A83401D0C823AC0401C0CC94D032
:1016D000DCD041016FE0DFA679716EC083AD0500FB
:1016E00056CC83A34500B30AB60394496AC266C4C4
:1016F00022D626D44AD24ED05EC8DC51B31DB603E2
:1017000083A98500C44583AB450103A98501C04D6C
:1017100083A20502B70500023387BA005ACA330D07
:10172000760252CE62C6B30CD602B3137602B3165B
:10173000D60233083603B30E9602B3087603B30F0E
:101740002603330F860233035602330BF602331996
:101750002603B3193603B3149602B31B760333146E
:101760008602B31256023316F602B3375701EE97CC
:10177000139E670069833367EE00E987135E670095
:10178000139CA701131AA701336C8E016A97338A41
:101790004A4133BE4A01333DA701B38A8D41338CA0
:1017A000F300B387BC006A9C33BD9701369DB38AB2
:1017B000CA41E983131E6D00B367FE00135DAD419E
:1017C00093D36700131EAD0133EEC3019393A701BA
:1017D000C697B3837C40B3B81701338EC641EA9BEA
:1017E000B7060001B3BC7C00C69BB308D700330E1C
:1017F0009E41B3BCE800669C931C7C0093D8980182
:10180000B3E81C01939C9801135C9C41C29833B8C7
:101810000801E299C2993388D700333DF800EA9B6A
:10182000139C7B001358980133680C01131C98011A
:1018300093DB9B417E98B33FF801CA9BFE9BB38F1D
:10184000B800B387874133BC1F01E299139969003F
:1018500093DFAF01B36FF90113D9A941B389FE0139
:10186000B3BED901CA94338C9E00B30EB80033B90D
:101870000E015E999314690093DEAE01B3EED401BC
:10188000B304DF011359A94133BFE4014A94B30BF8
:101890008F00338FD90033343F01629413197400E1
:1018A000135F9F01336FE9013389E301658472940B
:1018B000B3337900338ED400A29333349E005E9408
:1018C000931B7400135E9E0133EECB01135C9441B5
:1018D0003304C30133336400E292B30B5300B30209
:1018E000B90033B322019A939A033303B40093D21D
:1018F000A201B3E25300B3338300DE93939B6300F2
:101900001353A30133E36B0093DBA341B3036B00D9
:101910005E969E9633BB6301329B33B676005A9631
:10192000131B7600E582B366DB00CD4B6586338BF7
:10193000DB0233079741EA0F660FEA0E660E6A0371
:10194000B389E941B384C441330464403386CB0294
:101950005A9A333B6A01D295B388F8419697330877
:10196000D8412326350144CD23241501B3BBDB0226
:10197000E606B386D3405CC9232C050100D154D1BF
:101980005E9656965A9633BB45015A961A06E981D9
:10199000D18D1396A501BA951397A201330ACA40B7
:1019A0003309E94023204501232825014CC1325445
:1019B000A25412598259724AE24A524BC24B324CDB
:1019C000A24C124D824D45618280D845757122C767
:1019D0003AC4D849404A26C53AC6D84D4AC34EC132
:1019E0003AC8D851D2DED6DCDADADED8E2D6E6D48E
:1019F000EAD2EED03ACA83A805029C4103A885002A
:101A0000944903A385011842032E8600032FC600C4
:101A10008322060103A945004C4222CC004E131A32
:101A20001900B383E70222D4404E22D6005250520E
:101A300022D832DC22464D44B39DE70293191600AA
:101A40003246060632CE4246060632D05246B38BA6
:101A50008202060632D26246B30A86022256B304D6
:101A600086023256B30F86024256B30E8602625683
:101A700033068602330BCA02331DCA021E9BB333E0
:101A80007B006E9D1E9DB303D803B31DD803DA936C
:101A900033BB63016E9D6A9B338DF903B39DF903DC
:101AA0001E9DB3337D006E9BDA93338B9602B39DFC
:101AB00096026A9B333DAB01EE931E9DF243F24DBD
:101AC000330C8F02B3835303B39D5D03DA9333BBAF
:101AD00063016E9DB30D73036A9B331D73039E9D5B
:101AE000B3B37D005A9D1E9D8253025BB30C8E02E0
:101AF000B3838303331B8B03EE93B3BDB3016A9BA4
:101B0000338D98036E9BB39D98031E9DB3337D0068
:101B10006E9BDA93338B8502925D1EDE9253B30D7A
:101B2000BB03331B7B02B303BD011EDA33BDA3012C
:101B3000F2531E9BB3036D019EC2338BB702B303F6
:101B40002703B39DB702DA9333BB6301331D270329
:101B50006E9D5A9D330B0603B31D06031E9BB333C4
:101B60007B006E9DEA93224DA24D338DAE03B39D53
:101B7000BE035A9D333B6D01EE93B38DDF02DA93C2
:101B8000339BDF02EA9D33BDAD01DA931E9DB24364
:101B9000338B7402B39374026E9BB33DBB011E9DE5
:101BA000B3836A02EA9D339D6A02DA9333BB630111
:101BB000EA9D424D6E9BC24D338DAB03B39DBB037B
:101BC0001E9DB3337D006E9BDA93330B1C03B31D54
:101BD0001C036A9B333DAB01EE931E9DD243D24D55
:101BE000B3837C02B39CBC03DA9333BB63011EDE78
:101BF000669DB303AB01B38CC7039EC6330BBA0219
:101C0000339DC703669BB33C9B01B31DBA02B3036C
:101C1000BD01330D0703E693B31C07035A9D333B05
:101C20006D01B30D3603E693DA93331B3603EA9D59
:101C300033BDAD01B38CDE02DA93EA93339DDE024D
:101C4000EE9CB3BDBC01EA939E9DF243339D7F029F
:101C5000338B7F02EA9DB3836402669BB33C9B0196
:101C6000EE9C339D6402DA9333BB6301EA9C669B6E
:101C7000825C338D9A03B39C9A031E9DB3337D001F
:101C8000669BDA93338B1B03B39C1B036A9B333D28
:101C9000AB01E6931E9D9253B39CE703B30D7C0208
:101CA000331C7C02DA9D33BB6D01629DB303AB0133
:101CB000338CE7039EC8330BC903331DC903629BF2
:101CC000333C8B01B383AC01B30CB802E293331CF9
:101CD000B802DA9C33BB6C01E293DA93224B330CEB
:101CE000D602330D6703331B6703669DB33C9D012A
:101CF0006A9C333DAC01DA93E693B31CD602E693BB
:101D00001E9DB243B39C7E02338B7E02669DB383DD
:101D10006F02629B333C8B016A9CB39C6F02DA9327
:101D200033BB6301669C629B424CB38C8403339C3F
:101D300084039E9CB3B37C00629BDA93338B1A03BB
:101D4000339C1A03669BB33C9B01E2939E9CD24357
:101D5000339C5702338D7B02B39B7B02B303AB01F1
:101D600033BB63019EC0DE9CB3039B01B38B570260
:101D70009ECA330BEA03B31CEA035E9BB33B7B01B1
:101D8000B3039C01330CC803DE93B31BC8035A9CF6
:101D9000333B6C01B38CB902DE93DA93339BB90207
:101DA000E29C33BC8C01B30BD702DA93E293331C71
:101DB000D702E69BB3BC9B01E2939E9CF243331C8B
:101DC0007602330B7602E29CB3836E025E9BB33BDA
:101DD0007B01E69B339C6E02DA9333BB6301E29B8B
:101DE0005E9B825B338C7F03B39B7F031E9CB3336C
:101DF0007C005E9BDA93338B1403B39B1403629BCA
:101E0000333C8B01DE931E9C9253B38C7A02B39ABF
:101E10007A02DA9C33BB6C01569CB3038B019EC4DF
:101E2000E243B30A5902338B7702331C5902DA9A20
:101E300033BB6A01B39B7702B3838B01B30BE80317
:101E4000DA93331BE803D69BB3BA5B01DA93D693DC
:101E5000A24A338BB602338CCA03B39ACA035E9C80
:101E6000B33B7C01629B333C8B01D693DE93B39BE7
:101E7000B602DE931E9CB243B31B7702B30A77020D
:101E80005E9CB3036602DA9A33BB6A01629BB31BA2
:101E90006602D693B3BA53015E9BDA9A424BB38B78
:101EA0006E03339B6E039E9BB3B37B00DA9AD6938B
:101EB000B38A1F03339B1F03DE9AB3BB7A01DA9305
:101EC0009E9BD243338C7402B3947402338D8A0187
:101ED000B33A5D01E243A69BB3847A01A6CCA25437
:101EE000B31B7A02B38A9702339B9702E244B3048E
:101EF0009A02B3037B01D694B3BA5401D693B30AC2
:101F00005802331B5802A69AB3B49A00DA93A693E8
:101F1000B394E903338BE903A693B384C603569BBA
:101F2000B33A5B01D693F24A339CC603DA9433BBCF
:101F30006401E2931E9BF243339CBA02B383B30263
:101F4000629BA693B3B49300B38B6401330B670217
:101F50008254331C67021E9BB3337B00B38A8B0110
:101F60009E9AB3039602B31B9602DA9333BB6301C6
:101F7000B3847A01B38A1E03DA94339B1E039E9ABC
:101F8000B3B37A00DA94A6939254125BB3849F029F
:101F9000B39F6F03D694B3BA54019E9F338CFA015A
:101FA000B25FA25AB383F703339BF703A25FB30F69
:101FB000F903B31B59039E9FB3B37F00B30A7B01A0
:101FC0009E9AE243624BB3037802331B6803FE938D
:101FD000B3BFF301DA9AD69FA24A224BB38A5A02C0
:101FE000331B5B029E9AB3B37A00DA9F338BE6030E
:101FF0009E9FB393E603569BB33A5B019E9FFE9A66
:10200000B24FB383CF03B39BCF03DA9333BB6301E8
:10201000DE9AB30FB302569BB31AB3029E9FB3B3BB
:102020007F00569BC24ADA93424BB30A5703331BD5
:102030006703FE9AB3BFFA01DA939E9FB3031603B8
:10204000331B1603D693B3BA5301DA9FFE9AD24FCD
:10205000B38BFE03B39EFE039E9BC25FB3B37B00B4
:10206000F69AB38E5301F6CEB393F703C25EB25F16
:10207000B25AB38ED703B30FFA03331A5A03F69F3B
:10208000B3BEDF011E9AB3834E01A25E338A5602AD
:10209000B30AD803B31ED803FE9AB3BFFA01F6936E
:1020A000E24E9E9FB303C303338BD903B399D90385
:1020B000569BB33A5B015A9A333B6A01F24ECE9F6C
:1020C000B3995602D69FCE9F7E9BF24FB38EEE03FE
:1020D000B39FEF03D29E33BA4E01F693B3BED30142
:1020E0007E9BB31FC303529B7E9B825F330A170301
:1020F000DA9EB389BF02B39FBF029E99B3B3790042
:102100004E9AB3393A01FE9EB31F17039E9EC253E7
:10211000FE9EF699925EE25FB30AD6033316D603AB
:10212000B30E5A0133BA4E01B2996256D299338630
:10213000C702B397F703C25FB30FF90333197902EC
:10214000B29F33B6CF00CA973E96B257B303F80298
:102150003318F802FE93B3BFF301A2474296B29F31
:102160002256B387C70222462258331606039E978B
:10217000B3B37700B29F6246FE933388C602B3962C
:10218000C6023E98B337F800B693B2469E973386A0
:102190005602B392560242963338060196973E98FD
:1021A000C247B306E3033313E303B29633B6C60064
:1021B000B38FC7031A984296339EC703B69FB3B630
:1021C000DF00B387B8027296B2961646264EB395D4
:1021D000B802FE97B3BFF7019648AE96B69FD246B7
:1021E0003303D7023317D7023E93B337F3007E97FA
:1021F0003388E700D25737070002B386E700B3B74A
:10220000F600B29713966700E982D18EE98713D65C
:102210006600139BA701336B660152569395A60186
:10222000338B6841B305B6403336B600B308CB40B4
:102230007256B296B3B3C6003646330BF6003386F9
:10224000EC00B3379601F297139E670069823366FC
:10225000CE00E987135E6600DA93139BA701336B08
:102260006E01264E131FA601338FEC41330B6E41D6
:10227000664EB3BCEC0133099B41B30AFE00B707BD
:102280000001338EF600333BDE00DA93939F730038
:10229000135E9E0133EECF0193129E01B38256402E
:1022A000C6466A9613DB9341333DA601369BB306BF
:1022B000F600EA9A33BDC600EA9A939F7A00E58257
:1022C000B3E6DF006E9E939F9601B33CBE01A696D7
:1022D0003306F64193DA9A41B30FEE00669BB3B42E
:1022E0009600B3BCCF01E29ADA9CA69A86449393F7
:1022F0006C0093DFAF01B3EFF301338CF401333D96
:102300009C00D64493DCAC41EA0FA69CB384E60063
:10231000B3B3D4009E9A93936A00E980B3E4930028
:10232000F64393DAAA41EA9C9E9AB303FC0033BDBC
:102330008301EA9C139A7C0093D39301B3637A00E0
:10234000330D7F0093DC9C41338B9B00CA9C333F51
:10235000ED01B33B7B01669FB30CFB00B3BD6C0189
:10236000D69BEE9B330AED0013997B0093DC9C0116
:10237000B36C99013339AA014A9F93DD9B411A0F2F
:10238000B38B9E01135AAA01B3BADB01336A4F0122
:10239000EE99338FEB00D699B33A7F01CE9A939E94
:1023A0006A00135FAF0133EFEE013309E30193DA03
:1023B000AA415698CA9733336900429333B827012C
:1023C0001A9813137800E583B367F3001358984104
:1023D0003303F402EA04E60CE6036A0F330B9B4175
:1023E000330C7C405296858EB38BEB41330804034B
:1023F0009A9533B365002E97330EFE41232685014F
:10240000232E650123207503AA442324C5013334F8
:10241000F402E607B307F94050C91A4914CD5CD15C
:102420004294A2989A983333B7009A989A0869838D
:1024300033E7E8003A441318A701169758C1131759
:10244000AA01330DED40B38505412328A5010CC138
:102450008A49765AE65A565BC65B365CA65C165DC0
:10246000865D496182805D7166D483AC450256DC2D
:10247000930A600233865C03A2C6C04183A80500AC
:102480005ADA9316140003AB0502CAC252DE9397C0
:1024900018003389180362D66ED04D4C984903A3B7
:1024A00085015ED803AF850083ABC50183A34501D9
:1024B000338AC60283AFC500931E1F00A6C41398BB
:1024C0001F00CEC093191700139E13006AD2139DEC
:1024D0001B00B39DC6024A9A33392A01B3981803E8
:1024E000B3058B03EE98CA983389BE02B3825B03AF
:1024F0005299333A4901B39DBE02EE98B30D58028A
:10250000469AB3185802CA9D33B92D01B304830308
:10251000D2984699B3989902CA9833895303338A5B
:102520009902B30A79026E9AB33DBA01EE98331953
:102530007902D29A33BA4A014699B3082A01338AFA
:10254000870246C63309E603B39D87025299333AA0
:102550004901B318E603EE98D298338A0503B39D78
:1025600005034A9A33392A01EE98B38DE202CA98DC
:102570003399E202D29D33BA4D01CA983389C4031C
:10258000D298339AC4036E99B33DB9014AC4D29824
:10259000EE9846C833898602B388E703339AE70387
:1025A0004699B3381901339486025294A2983304A1
:1025B0000603331A06034A9433392401B38D3503D5
:1025C000D2984699B3993503A29D33B48D00B38850
:1025D000C2034E9922993394C203EE98B3BDB80159
:1025E0002299CA9D33896402B39464024699B33830
:1025F0001901EE9433849800B388F70322CAB38498
:10260000E603B399F703C694B3B81401339AE6030B
:10261000338449014694B308E602B319E602A6984A
:10262000B3B498004E94B389C5032694B394C503FC
:10263000C699B3B819012694A29833846202B39460
:1026400062024E94B3393401A698B3841901B38958
:10265000E70226CCB3880603339A0603CE98B3B9B3
:102660003801B394E702B30DEF03D294A699331F58
:10267000EF03C69DB3B81D01B304C603FA99C6990A
:10268000331FC603EE94B3BDB401FA99CE9D9319DE
:102690001300338FB902B399B902269FB3349F0058
:1026A000338A7203CE9DEE94B39272037A9A333FCB
:1026B000EA01A692B3085F00338FF302B382E60209
:1026C000B399F302FA9233BFE201B39DE602B384F9
:1026D000B901FA94338FFE03B399FE03169FB33208
:1026E0005F00CE94A692B3046602B3196602FA9410
:1026F00033BFE401CE92FA92339FA503B389A503B9
:10270000FA92B39D6702A699B3B49900969426CE27
:10271000339FC603B38267026E9FB384C603B39D23
:10272000EE029694B3B25400169FB382EE026E9FEF
:10273000B30DF803A692B3B49200FA94B31FF80352
:10274000969DB3B25D00330FA603FE949694B31228
:10275000A6036E9FB33DBF019694A69DB384650307
:10276000B3956503FA9433BFE401EE95B30FBF0050
:10277000B39D6602339F7703B38277036E9FB38561
:102780006602B38D7E029695B3B25500FA92B3936A
:102790007E02AE9DB3B5BD009E92AE92B315E80227
:1027A000330FE802AE92B30366036E9FB33DBF01E1
:1027B000969DB3156603FA9333BFE301AE9DB382D2
:1027C000A6036E9FB3856703B39D6703AE92B3B54F
:1027D000B200339DA6036E9D2E9DB3856E02B39D00
:1027E0006E029695B3B255006E9DEA92330DC80302
:1027F000B31DC8032E9DB335BD00EE929695B3026E
:10280000E702B31DE702EA9233BDA201EE952E9DC9
:10281000B3059603331696039695B3B25500329DD1
:10282000EA9233869703338D6603B3979703329DFD
:102830003336CD00B3966603B38D7E03B6973E96CE
:10284000B39E7E03EA9D33BDAD01330B68027696DD
:10285000329D3246331868026E9BB33DBB01324352
:10286000B30EC703429DEA9D3317C703DA9E33BBFD
:102870006E016E97330EEB0037070002B386EA0055
:10288000B3B75601B29713966700E982D18EE987F4
:1028900013D866001396A7013366C8001398A601E3
:1028A00033880A413306C340B3BA0A01B30A56411A
:1028B00022464243B29633B6C600B30DF300B29D32
:1028C0003306EA00B3374601C6971393670069825F
:1028D0003366C300E987135B66001393A701336374
:1028E0006B00B38868407243131BA6014E969A97FB
:1028F000B3393601330B6A41BE99B7070001338300
:10290000F600333A6A01B3884841333AD300D29D86
:10291000139A7D001353930133636A00931B930151
:10292000B38B7641D2464A9393DD9D4133392301DF
:10293000338AB601B306F6004A9A33B9C600CA997B
:1029400013997900E582B366D90093D99941139917
:102950009601CE9FB309E300A6963306264133B90C
:102960006900B3B496005299A69F93D9A901931414
:102970006900B3E93401E244B30C34011359A941AD
:10298000269933B48C004A943389E600B334D900D5
:10299000A69F93946F001359A90133E9240193D49E
:1029A000AF41B38F2301B3B37F00269FB384FC00F4
:1029B0001E9FB3B394011E94135A94419313740051
:1029C000D298E580338AFF00B3E49300B333FA0171
:1029D0001E9F93137F00135A9A0133049B0033EA1E
:1029E000430193539F41333B64019E92B303E40040
:1029F000DA9833BB8300DA98338F45019A0893D372
:102A0000A301B335BF00B3E37800B308EF00AE9283
:102A1000B3B5E80196959392650093D8A801B3E801
:102A20001201338B1E01E9852E9EDA97B33EDB013E
:102A3000F29E33BE6701769E93157E00E583CD8FAF
:102A4000135E9E41B305FC02EA09E6046A09660AC0
:102A5000EA08B38C9C4033033341B3862641B38FDD
:102A60004F41330ECC032E98B335B80042971E96D3
:102A7000330F1F41232695012324650050C914CD2F
:102A8000333CFC02E607B307FB40232EF50123206D
:102A9000E5035CD1A64416498649725A729CE29AB3
:102AA000AE9AB3350701AE9A9A0A698333E7EA0012
:102AB0009315A7015E9758C11397A301198C00C9FC
:102AC00036443308B84023200501E25A525BC25B0A
:102AD000325CA25C125D825D6161828063CB050025
:102AE00093D735403E9508219D893355B5400589DA
:102AF0008280014582809D6581468547938545A8F2
:102B0000130800023387D5003306D500184310425E
:102B100091061347F7FF3A96B2973337E600B3B7FB
:102B2000C700BA97E39006FF3E858280EFD24FE060
:102B300041112A842E852EC67D3FB2451D6613584D
:102B4000F5413303A0408146130646A893080002CE
:102B5000B307D6009C433387D500184393C7F7FFCC
:102B6000B3F767003E97B337F7003A95C29733083B
:102B7000D4002320A8003337E50091063305F70081
:102B80000148E39716FD41016FD0CFDCEFD24FDA59
:102B90002A84EFE08FFB13058402EFE00FFC13059E
:102BA0000405EFE08FFB13058407EFE00FFA6FD009
:102BB0006FDAEFD2EFD7138985022E842E86CA856D
:102BC000AA84EFE08FFE2286CA8513858402EFE097
:102BD0003F809305040513850405EFE08FF91D661A
:102BE0001306C6A59305840713858407EFE0FFDD70
:102BF0006FD04FD6EFD22FD25D7113848502AA8495
:102C0000328A2E892E860A85A285EFE00FFA4A863F
:102C1000A2852810EFE0CFFB52868A850A85EFE077
:102C2000DFDA2C1013068A022E85EFE01FDA938A72
:102C3000840230108A855685EFE02FF730108A85A0
:102C40002685EFE0EFF81384040513060905B28525
:102C50002285EFE08FF513060A05A2852285EFE0B5
:102C6000DFD69389840713068A07930589074E8563
:102C7000EFE0BFD54E86A2850A85EFE00FF34E86C2
:102C8000A2852810EFE0CFF45686A6854E85EFE0AA
:102C9000DFD33010A6852685EFE03FD30A86D685A0
:102CA0005685EFE09FD230108A852285EFE0FFD174
:102CB00061616FD08FC9EFD22FC5138A85022A892F
:102CC000AE893685B28B2E86D2853684BA84EFE003
:102CD000CFED4E86D2852685EFE08FEF5E86A2850A
:102CE0002285EFE09FCE13868B02A6852685EFE036
:102CF000DFCD130B89022686A2855A85EFE0EFEA25
:102D00002686A2854A85EFE0AFEC130A09051386F3
:102D10000905B2855285EFE04FE9930A89071386CA
:102D20000B05938589075685EFE03FCA5686D28505
:102D30002285EFE08FE75686D2852685EFE04FE9C2
:102D40005A86CA855685EFE05FC82686CA854A85B9
:102D5000EFE0BFC72286DA855A85EFE01FC72686D7
:102D6000A2855285EFE07FC66FD08FBDEFD2AFBA9C
:102D700032842A8AAE8A328593048402EFF0AFEE61
:102D8000138B8A02DA85268513090405EFF0AFED6F
:102D900093850A054A85EFF00FEDCA854A850946F5
:102DA00093098407EFE05F935A86D6854E85EFE05E
:102DB000CFDF930A8A07CE855685EFF0CFEA2286C9
:102DC000A6854E85EFE06FDE2286A6852685EFE09C
:102DD0002FE04E86D6852285EFE08FDF2686CA85D6
:102DE0004A85EFE0EFDE4A86A2855285EFE0FFBD1F
:102DF0002686CE8513058A02EFE03FBD4A86A6856A
:102E000013050A05EFE07FBC4E86A2855685EFE0EC
:102E1000DFBB6FD08FB3EFD2AFB1AA842E8913047A
:102E2000C00FA2854A85EFF07FCB19E17D1475F8BC
:102E30000504FD57A0B09EA0BCA06FD0AFB1EFD2EB
:102E4000AFAC2431AA8932896393C402AE8A368535
:102E5000B285368B130AF9FFEFF05FC82A84D2855A
:102E60005A85EFF0BFC7631DA400A3814901839772
:102E70000900014563942701038529006FD04FACF9
:102E8000138A140063D34A01568A1305FAFF3314D8
:102E9000A40033048040814A330C4941D68B850A13
:102EA00063185A05E2855A85EFF05FC32295B30790
:102EB000A040E98F13F4A70A13F7C70C333480003E
:102EC00011C3094793F7070F598C91C39147130713
:102ED0001900C18F330747413E973355F540B384FE
:102EE00044412390E9002381A900A381990041B7BF
:102EF000B3055C015A85EFF07FBE331575012A9446
:102F000071BFEFD2EFA2EFE04FC24D8D1335150028
:102F10007D156FD02FA481476393B700828033075C
:102F2000F500230007008507C5BFEFD26FA07971B8
:102F30002A848147130780023386F500104234004B
:102F4000BE9690C29107E399E7FE3257CD4710181D
:102F5000B387E70237070001BA973800E587BA86DA
:102F60008C42A106AE9783A5C6FFE987AE97E58799
:102F7000E318D6FECD46B387D70214432107B69790
:102F800093D6A7419395A6018D8F232CF7FE832717
:102F9000C7FFBE9693D79641939597018D8E232EAA
:102FA000D7FEE31CE6FCB247A2452285EA07DD8D89
:102FB000EFE00FAEB245C247130544009981CE073A
:102FC000DD8DEFE0EFACC245D24713058400B5813B
:102FD000B607DD8DEFE0CFABD245E2471305C40065
:102FE000CD819A07DD8DEFE0AFAA8257F245130538
:102FF0000401E607DD8DEFE0AFA982559257130576
:1030000044019D81CE07DD8DEFE08FA89255A25738
:1030100013058401B581B207DD8DEFE06FA7A255DE
:10302000B2571305C401D1819A07DD8DEFE04FA699
:10303000280093058002EFF01FEE45616FD08F915D
:10304000EFD20F8F39712E84AA850A85EFF0FFED3C
:10305000A2850810EFF07FED0C100A85EFF07FEAF3
:103060002A84930500020A85EFF0FFEA0810930511
:103070000002EFF05FEA1305140021616FD08F8D1D
:10308000EFD26F8919712A8928002E84EFF0AFBD25
:103090002C000818EFF02FBD0C182E85EFF0AFBCF8
:1030A00010183285A285EFE05F922C0010182E8553
:1030B000EFE0BF912C002E85EFF0EFBA30003285A3
:1030C0000C18EFE09F902C000818EFF0CFB9914456
:1030D0000C182E85FD14EFF00FB9FDF83000328585
:1030E0000C18EFE09F8E2C000818EFF0CFB7A54426
:1030F0000C182E85FD14EFF00FB7FDF80C182E8577
:103100003000EFE09F8C0C18A808EFF0CFB5CD444D
:10311000AC082E85FD14EFF00FB5FDF810183285C0
:10312000AC08EFE09F8A0C182E85EFF0CFB3A544D2
:103130000C182E85FD14EFF00FB3FDF8300032852A
:103140000C18EFE09F882C000818EFF0CFB1930423
:1031500010030C182E85FD14EFF0EFB0FDF80C18DD
:103160002E853000EFE07F860C18A808EFF0AFAF97
:1031700093043006AC082E85FD14EFF0CFAEFDF8B9
:1031800010183285AC08EFE05F840C182E85EFF044
:103190008FAD930410030C182E85FD14EFF0AFAC27
:1031A000FDF8300032850C18EFE03F822C002E85B0
:1031B000EFF06FAB2C002E85EFF0EFAA2C002286EB
:1031C0002E85EFE09F802C000818EFF0CFA90C1897
:1031D00022862E85EFE06FFFA808EFE00F97AC087E
:1031E0002285EFF0FFE52A84A808EFE00F97AC08EE
:1031F0000818EFF0FFE4AC08AA8A2E85EFE00F99DB
:10320000AC080818EFF0DFE31D6AAA8993050AEB02
:10321000A808EFE0AF97AC080818EFF07FE21306BC
:103220000AEB2C00AA844A85EFE02FFAB3E4990058
:103230000546058E2C004A85EFE00F9C280093057B
:103240008002EFF05FCD081893058002EFF0BFCC4D
:10325000A80893058002EFF01FCC33655401336555
:10326000350109616FC07FEEEFC29FEC39712A848E
:1032700028082EC6EFF02F9F2C082E85EFF05FE078
:103280002C082E85EFF02F9E32462C082285EFE089
:10329000CFF3280893058002EFF0FFC721616FC0CC
:1032A0007FEBEFC2FFE859712E84AA848145130693
:1032B00040066800EFC0DFEA6C009D6E2E88014377
:1032C000938ECEE8930F040493024002B3876E00FE
:1032D00003AF07002286A2884285014783A7080022
:1032E00091081105B306FF02333EFF028327C5FF95
:1032F000B6973E97B3B6D700232EE5FEB337F70057
:10330000F2963387D700E39BF8FD2320E8041103EE
:103310001108E31D53FA02C602C802CA02CC02CE4B
:1033200002D002D202D41308C100A1481D6F930E2F
:103330004FA84285014E81468327080403A30E004F
:10334000050E110533876702910E33B36702832799
:10335000C5FFBA97BE9633B7E700232ED5FEB3B7A5
:10336000F6001A97B386E700E3681EFDFD18110802
:10337000E39F08FA13040402854698411C42110693
:103380001347F7FFBA97BE9633B7E70094C1B3B7B8
:10339000F600B386E7009105E31186FE6C002E85EA
:1033A000EFF0CFF821466C002685EFD05FF2680081
:1033B00093054006EFF03FB665616FC0BFD9EFC21D
:1033C0003FD70111AA850A85EFF03FB600800A8534
:1033D00093050002EFF03FB40588228505616FC0B8
:1033E0007FD7EFC25FD3130985022A8405464A8539
:1033F0002E8A93090405EFE0AF894E859304840774
:10340000EFD0BFF5CA852685EFF0EF851D66130660
:1034100046E6A6852285EFE04FDB4E86A68526850B
:10342000EFD01FFB4E86A2852285EFD01FF8A68520
:1034300022852286EFE06FD9A2852285EFF05FC456
:1034400015C92286A6852285EFE02FD82285EFF0C8
:103450001FF78347FA019D836316F500A285228535
:10346000EFD0DFF226854A86A285EFE00FD6014530
:103470006FC0BFCD7D55EDBFEFC29FCB19712A84C0
:10348000AE84280093850505EFF01FDE3000A68589
:103490000818EFE08FD3300093858402A808EFE08E
:1034A000CFD2AC082285EFF05FA80818EFF03FF10B
:1034B000A167938707F81E057D8D7C3C93058002EC
:1034C0003D8D68BC2800EFF01FA508189305800209
:1034D000EFF07FA4A80893058002EFF0DFA3096155
:1034E0006FC05FC7EFC2DFC439712A8441460A85C5
:1034F000EFD05FDB8A852285EFF0BFDA0A8593057E
:103500000004EFF05FA121616FC0DFC4EFC2BFC054
:10351000130101BE130A0502AE842A84D2858815E0
:10352000B28A2146EFD01FD8A6858810EFF07FEB36
:1035300011C57D55130101426FC03FC1A28508022C
:10354000EFF03FEA7DF58815EFF0EFDA7DF19004BA
:103550008C100813EFF09F818C108815EFF06FE549
:1035600090150C138804EFF0EFE88C040807EFF0D7
:103570004FE4D6852800EFF01F8AD2856800EFF06F
:103580009F899C870349B1006373F9003E898810C5
:103590009D691379F90FEFF06FDF094B938949AA01
:1035A0008C102E851013EFF06FFCD6864A868D4561
:1035B0002800EFF0DF882A84D2864A869545680085
:1035C000EFF0FF87AA846352800805841306000A7F
:1035D0003306C4029C153E968C102E85EFF08FE1C9
:1035E0006359900A8584130680073386C40238180D
:1035F00014084E968C102E85EFF0EFEB7D19FD57D9
:10360000E310F9FA0C028804EFF0AFDA8C109004A2
:103610002E85EFF02FDE8C1010022E85EFF00FF5C7
:103620008C1010022E85EFF06FF48C1010022E8596
:10363000EFF0CFF38C100813EFF01FE49D65938536
:1036400085ED0813EFF0FF8BF5B559D833446403CB
:10365000930500F69C15A8143304B402B3858700C3
:10366000EFD03FD19C1593058402BE958804EFD01E
:103670005FD09C1593050405BE95080DEFD07FCF54
:103680009C1593058407BE95281DEFD03FD090046C
:10369000A1B7ADD4B3C46403930780F8A814B3846E
:1036A000F402CE94A685EFD0DFCC93858402880403
:1036B000EFD03FCC93850405080DEFD03FCD3818EF
:1036C0001408900405BF81466393C60082809C2144
:1036D000983183C82500E2074207D98FA208B3E7D3
:1036E000170183C84500F83103C33500E20833678A
:1036F000170183C85500139836002A98C20833670B
:10370000170183C86500B3E767002322F800A20809
:10371000336717012320E8008506A10575B71C4112
:103720001971A2DE3EC25C41A6DCCADA3ED41C4559
:10373000D2D6E6CC3EC45C45EEC8CED83ED61C49B7
:10374000D6D4DAD23EC65C49DED0E2CE3ED81C4D9D
:10375000EACA9D633EC85C4D130905043EDA1C515C
:103760003ECA5C513EDC1C55E256C24D3ECC5C5517
:10377000624F525A3EDE1C59F254B2483ECE5C595A
:10378000F24EC25FBEC01C5D064422433ED05C5D6B
:10379000025EB252BEC2938783EF3EC09307050418
:1037A000BEC69307050CBEC4964CD247124722569C
:1037B000938383EF83AA030083250900032849002C
:1037C00083A94300D695B3BA5501C299CE9A139BEB
:1037D000260193D9E700336C3B0113D8E600939997
:1037E0002701B3EB0901139BE60093D92701336846
:1037F0003B0113DB26019399E700B3E96901B3C9E3
:103800003B01334B0C0193DB970013987601B3EB2C
:103810000B01139C770113D8960033688801334B52
:103820000B01B3C979012E9BB335BB00CE9A93CB64
:10383000F7FFAE9A93C9F6FFB3F5E701B3FBDB01DF
:1038400033F89600B3CBBB00B3F98900DA9BB3C958
:103850000901D69933BB6B015E9E4E9BB33B7E0143
:10386000DA9C9315E601935A26001318E701935941
:103870002700DE9CB3E9B900B3EB0A0193154600BB
:103880001358C701B3E50501935AC6011318470041
:103890003368580133C80901B3CABB009359770094
:1038A00093159601B3E9B900131B97019355760060
:1038B000B3E56501334B1301B3C5BA00B349380111
:1038C000337BEB00B3CAF20133781301B3FBF2018F
:1038D00033480B01B3FACA00B3CA7A012E98B33544
:1038E000B800CE9AB38B5501330CBE017298669A1C
:1038F000333BCC01DE9C333EC801B3059E012ED282
:103900002E8DA645529B2109E289DA8AC28BA1033A
:10391000C68D7E8A768EA28C639B2537024BB6437A
:10392000F68C228CFA8E26843E8FB68446D2FEC454
:103930009A88968F3A83B282CE87D6865E876A86C9
:10394000795A9375FA00A1058E05AA9503A9050079
:10395000CC41A10313583901939BD500B3EB0B0164
:10396000931AD90013D83501B3EA0A019359D90142
:1039700013983500131E3900B3E9090113D8D50196
:103980003368C801B3C93A0113596900939AA50174
:1039900033C80B0133E92A013349280103A883FF07
:1039A00003AEC3FF99814A98B3C9B90033392801DE
:1039B000F299330E390113093AFF1379F9002109FD
:1039C0000E0923AC03FF23AEC3FF2A9983294900C4
:1039D00083250900210B139DF90113D91500336DBF
:1039E0002D01939BF50113D91900B3EB2B01939A89
:1039F000890113D9850093DD8900B3EA2A0113995F
:103A000085013369B90133C92B019D81939B9901CC
:103A1000B3E5BB00B34A5D01B3CABA0093D97900DC
:103A20009305BAFF569833493901BD897299B33A63
:103A30005801A105CA9A8E0523AC03FF23AE53FF9C
:103A4000AA9503A90500CC41939927014299AE9A02
:103A500033380901569893D5E700939A260113DE6F
:103A6000E60033EDBA00B3EBC90193D52701939972
:103A7000E70093DA2601139EE600336EBE00B3E53D
:103A80005901B3C9BB00B34ACD0193D59700139E2A
:103A90007601B3E5C501939B770113DE960013CD44
:103AA000F7FFB3C5B900336E7E01337DDD0193CBE3
:103AB000F6FFB3F9E70133CECA01B3FB8B00B3497C
:103AC0003D01B3FA960023AC23FF23AE03FFF29926
:103AD000B3CA5B01AE9A33BEC901832D8B07569ED4
:103AE000832ACB07CE9DB3B93D01569E6E99F299BC
:103AF000C299B33DB901CE9D9355C70193194600B4
:103B0000B3EBB9001358C60193154700B3EA05019A
:103B1000135E26001318E601131DE70193552700D5
:103B2000B369AE01B3E50501135E77001318960182
:103B3000B3C5BA00336E0E01931A9701135876007D
:103B4000CA9CB3C93B0133685801B34A130133B966
:103B50002C0133C8090133CEC501E29DB3FAEA0056
:103B6000B3C9F201B3751301330CB901B3C5BA007F
:103B700033F9F201B3F9C900B3C92901C29533B8C9
:103B80000501F299330938011258E695050A338E7A
:103B90000C012648B33D9E01B3BC950162984A9C36
:103BA000C29D46D233888C01FEC43949F289EE8A1F
:103BB000AE8B428DF68C228C63182A0F824393833E
:103BC00003081EC002499D639383830FE39823D5A6
:103BD000924322599E95B3B375004A981E980CC122
:103BE000A2452322050132582E97B335B7004296DD
:103BF0002E9618C5324750C542563A933337E300E4
:103C0000B292BA924247525623286500BA9833B707
:103C1000E800B29FBA9F52476256232A55003A9E47
:103C20003337EE00B29DBA9D624772562322B50328
:103C3000BA9733B7E7001CD5B296F247BA96064753
:103C40003E9FB337FF00BA94BE948257164744D9BB
:103C5000BE9EB3B7FE003A943E94232C1501232E4A
:103C6000F5012320C50354D52328E503232CD503D0
:103C700040DD7654E6545659C659365AA65A165B54
:103C8000865B764CE64C564DC64D09618280FA8EB5
:103C900026843E8FB6849A88968F3A83B282E287D2
:103CA000DA864287125639B6FA8E26843E8FB6845B
:103CB0009A88968F3A83B282F287EE862E87428662
:103CC00049B1EFC2EFC60326050DE157137486FF15
:103CD0001D8A3306F6022A942E8581451306860333
:103CE000EF10804F3C405D8D7C4028C0DD8D6CC066
:103CF0006FC04FC6EFC22FC28329050D2A842E89BB
:103D000093F77900B28485C3B309304193F9790000
:103D100063733601B289014AB307490163143A0D4E
:103D20003E89B38444418327040D13F7F70705CF79
:103D30003307F0401377F70793D9340063E4E400C6
:103D400093593700E19B130504044E86CA853E95BE
:103D5000EFF07F978327040D8E094E99CE97232885
:103D6000F40CB38434410327040D93070008631156
:103D7000F7068327840C8326C40C13870740B337C8
:103D8000F700B6972324E40C2326F40C95E393075D
:103D9000F03F63EFE7008327040C8326440C13876E
:103DA0001700B337F700B6972320E40C2322F40C56
:103DB0002285EFF0DF96930704042328040C1307F1
:103DC000040C0146814690C3D4C3A107E31BF7FE50
:103DD00093F904F8CA99130A0404930AF03F130BE9
:103DE000040CADA88C232285050AEFF09FED8327F4
:103DF000040D85072328F40C05B74146CA85528572
:103E0000EFF07F8C8327840C8326C40C1387074034
:103E1000B337F700B6972324E40C2326F40C85E38C
:103E200063EFEA008327040C8326440C13871700F2
:103E3000B337F700B6972320E40C2322F40C228535
:103E4000EFF0FF8DD2872328040C8146014794C3ED
:103E5000D8C3A107E39B67FF13090908E31F39F9DA
:103E600013F9F4076305090213563900CE851305CB
:103E70000404EFF05F858327040D93F4840733096E
:103E80009940A6972328F40C014A631449016FC096
:103E9000CFABB3874401CE978C232285050AEFF080
:103EA0005FE28327040D85072328F40CF9BFB77759
:103EB000000003A7871783A7C717014818C15CC173
:103EC000B777000003A7071883A7471818C55CC574
:103ED000B777000003A7871883A7C71818C95CC95C
:103EE000B777000003A7071983A7471918CD5CCD42
:103EF000B777000003A7871983A7C71918D15CD12A
:103F0000B777000003A7071A83A7471A18D55CD50F
:103F1000B777000003A7871A83A7C71A18D95CD9F7
:103F2000B777000003A7071B83A7471B18DD5CDDDD
:103F300081472320F50C2324F50C2322050D23268D
:103F4000050D2328050C930705041305050C814670
:103F5000014794C3D8C3A107E39BA7FE828019C67B
:103F6000EFC20F9DEFF01FD96FC0CF9E8280EFC2CE
:103F70002F9C8327050D2A84AE8481EF93070504C7
:103F80001307050C0146814690C3D4C3A107E39BE8
:103F9000E7FE930500082285EFF0BFD20326040D4B
:103FA0008327840C8325C40C93163600B69733B749
:103FB000D7002E972324F40C2326E40C05E363FF9B
:103FC000D7008327040C8326440C13871700B337CC
:103FD000F700B6972320E40C2322F40C9307F00695
:103FE00063F0C7022285EFF08FF3930704041307F1
:103FF000040B0146814690C3D4C3A107E39BE7FEAF
:104000000327040C8327440C22852328E40A232A4F
:10401000F40A0327840C8327C40C232CE40A232EE0
:10402000F40AEFF0CFEFA287A68513860404D443E9
:104030009843A10513D58601238CA5FE13D506014F
:10404000A38CA5FEA38DD5FE13D5860093568701BC
:10405000238ED5FE93560701A38ED5FE9356870077
:10406000238DA5FE238FD5FEA38FE5FEA107E39048
:10407000C5FC9305800D2285EFE0FFE96FC08F8DB1
:10408000EFC20F8B29712A84A81042C446C23AC8D5
:104090003EC636CA2ECE32CCEFF07FE16246F24504
:1040A000A810EFF0DFEBD246A81013060002B68589
:1040B000EFF05FC4B2474247A8103E86BA85EFF0E2
:1040C0001FEA92482248A8104686C285EFF03FE9D1
:1040D0002C10A810EFF0BFE92C102285EFF08FC054
:1040E00031616FC02F87EFC2AF8401112A84B68778
:1040F0003287AE86AE8481480148AA851306000245
:104100000A85EFF0FFF70A86A6852285EFF00FC03B
:1041100005616FC02F84B71702409843B706FFF0C0
:104120001367170098C3D843758FD8C39843B70651
:10413000F7FEFD16758F98C39843B706FCFFFD1672
:10414000758F98C3D843B70601FFFD16758FD8C386
:1041500037079F0098C7B746024003A7068013673A
:10416000070123A0E680D843B706C1FFFD16D8C3D8
:10417000D843D8C3D84313670740D8C3D843758FF3
:10418000D8C3D843B7061000558FD8C39843B70695
:104190000001558F98C3984393166700E3DD06FE30
:1041A000D843B7160240719BD8C3D8431367270082
:1041B000D8C32147DC42B18BE39EE7FE8280B7166D
:1041C0000240DC421146B18B138741806385C700F2
:1041D00021466388C702B7177A00938707201CC35C
:1041E000B7170240DC43918393F6F700B70700202E
:1041F00093870704B69794231C43B3D7D7001CC3F7
:104200008280DC42D4424166C983BD8BF18E89072E
:1042100045466393C700C94781EEB746024083A66F
:104220000680C18A89CEB7167A009386062021A817
:10423000B7160240D4421396E600E35606FEB716C0
:104240003D0093860690B387D70251BF01A097C166
:10425000FF1F9381216717E1FF1F1301A15A173533
:1042600000001305650F97C5FF1F9385A5D9138619
:10427000018263FAC5008322050023A055001105C1
:104280009105E3EAC5FE138501829385C1CF63776B
:10429000B500232005001105E36DB5FEFD427390C6
:1042A00002BC8D427390428093028008739002306A
:1042B00097C2FFFF938242D593E23200739052304F
:1042C000EFF07FE597D2FFFF9382A2E5739012345F
:1042D00073002030EFB2DFE5B72701409387074036
:1042E000631EF500854513050020EF00F04681456B
:1042F00013050020EF0050466FB0DFE5B7370140EF
:1043000093870780E31AF5FE854513050040EF000B
:10431000B044814513050040F1BF5C413707F1E02F
:104320001307F7EF944D7D8F9C41D58FD44DD58FDA
:10433000D441A206D58FD98F5CC11C4537F7F1FF58
:104340001307D77FD4457D8F9C49D58F944586062A
:10435000D58FD98F1CC55C55370710FF7D177D8F12
:10436000DC29FD1793F7F70FD207D98F5CD5828030
:104370001C4589C593E717001CC58280F99BEDBFDA
:104380001C4593E787001CC5828008450D8105897F
:1043900082801C4593E747001CC58280084509813F
:1043A000058982801C4591C537075000D98F1CC5EF
:1043B00082803707B0FF7D17F98FD5BFA54763F718
:1043C000B7048D47138765FF3307F7020328C5003D
:1043D0009D47B397E70093C7F7FFB3F70701B3967D
:1043E000E600DD8E54C5994763E3C70495477D1603
:1043F0003306F6025859FD47B397C70093C7F7FF36
:10440000F98F3396C5005D8E50D982800D47338772
:10441000E502032805019D47B397E70093C7F7FF1F
:10442000B3F70701B396E600DD8E14C96DBFB1473F
:1044300063E2C702954765163306F6021859FD4731
:10444000B397C70093C7F7FFF98F3396C5005D8E0A
:1044500010D9828095474D163306F6025855FD4710
:10446000B397C70093C7F7FFF98FB395C500DD8DEC
:104470004CD58280684542054181828008416D8D1E
:104480003335A000828093C5F5FF0CC182805C416A
:1044900091C537070004D98F5CC18280370700FCC3
:1044A0007D17F98FD5BFEFB2BFC801112A8423034E
:1044B0000100A5441C8363FAF40623030100A5460A
:1044C00021461C8363F0F60A231401002315010022
:1044D000230301009546130600601C8363FEF60E5D
:1044E0001C8393F7F70F63840712388414833C848A
:1044F0000C8310833347D702B3E7B7028607B3C7ED
:10450000C702BA97C207C1837C841883994795462E
:10451000998F93F7F70FDC839C8393F7F70F639CD6
:1045200007108567938707800DAA1C4493E78700CF
:104530001CC42285EFF07FE56DFD1C4493E7470026
:104540001CC42285EFF09FE56DFD78441C83141098
:104550008607B6972396E7FE1C83850793F7F70F28
:104560005C8389BFA30301009C836378F6001C83EE
:10457000850793F7F70F5C83A9B798839C830C108A
:104580000607850786072E97AE970357C7FE83D782
:10459000C7FE63FDE7029C838607AE9783D7C7FEFD
:1045A0007C849C83988385078607AE9783D5C7FE56
:1045B000931717001810BA972396B7FE9C83388478
:1045C0000C1085078607AE972396E7FE9C83850728
:1045D00093F7F70FDC8349BF1C8318108907860700
:1045E000BA9783D7C7FEE36DF6EE1C830C103884B0
:1045F00089078607AE9783D7C7FEBA97C207C183DC
:104600007C841C83850793F7F70F5C83F9B59307C8
:104610000040DDBD1C831010388589078607B297DE
:1046200083D7C7FEBA97C207C1837C851C838507E1
:1046300093F7F70F5C831C83E3FEF6FC38859483C5
:104640003C858C8390833347D702B3E7B702860754
:10465000B3C7C702BA97C207C1837C852884348553
:104660002C84308505679307004013070780338546
:10467000A740B306D7408D8F118F4205C206C207EF
:104680004207C18641874185C1873695BA978946D9
:104690003345D5020561B3E7D7023E954205418512
:1046A0006FB05FABB7066745B727024093863612F7
:1046B0003797EFCDD4C31307B79AD8C3D4D3D8D381
:1046C0008280372702401C4BA166D58F1CCB82808D
:1046D000B7270240984BB7060200137505F0558FB7
:1046E00098CBC8CB984B1367070498CBD847058B5A
:1046F00075FF984B8176FD16758F98CB8280372792
:1047000002401C4BC166137505F0D58F1CCB5C476E
:10471000858BF5FF372702405C47898BF5FF3727EC
:10472000024013060010B386F50003A80600B30686
:10473000F50023A006015447898AF5FE9107E3940A
:10474000C7FE1C4BB7062000D58F1CCBB7270240F5
:10475000D847058B75FF984BC176FD16758F98CBA2
:1047600082809C4513F7070113F8F70001C7D84171
:104770003368E80037270240145B3707000F758F56
:104780004DEB85462388D184371701406315E5003A
:104790009A2135839AA18E2113F7F50F39C3184159
:1047A0008146854E3D4F930F800293028004214E37
:1047B0003396DE00B3F8C500631116039398260004
:1047C00033131F011343F3FF3377E300B3181801CA
:1047D00033E7E8006397F70750C98506E39AC6FDFB
:1047E00018C11307F00F6375B70454412146854E75
:1047F0003D4F930F800293028004414EB398CE0048
:1048000033F715016392E8021317260001173313DB
:10481000EF001343F3FFB376D3003317E800D98ECC
:104820006395F703232A15010506E319C6FD54C154
:10483000828037170140E310E5F603C7018521DFC9
:1048400081BFE39C57F810C949BFE39F57FC232859
:104850001501D9BFB71701406316F50083C701855D
:1048600091C3B58108456D8D3335A0008280B7179F
:1048700001406316F50083C7018591C3B5810CC95A
:104880008280B71701406316F50083C7018591C385
:10489000B5814CC98280B71701406316F50083C704
:1048A000018591C3B58119C20CC982804CC982802F
:1048B000B7070140635A0504DC4F935605011318EE
:1048C00005013707300013F6F60013580801B376D8
:1048D000E500635E05066399E604930606010D464E
:1048E000B316D60093C6F6FFF58F99C91357550135
:1048F0001377F73F12073317E800D98F6355050682
:10490000370701405CCF828037270240145BDC43CD
:104910003707000F758F55F313D71700F976CE07B9
:10492000758FCD83D98F51BF1317B500635607001C
:104930008D46B396C6007DB7135755011377F73FE1
:1049400012073317E8001347F7FFF98F79BF639019
:10495000E602370601405442370700F17D17F98F10
:10496000758F58C2C1F5370701405CC382801317A9
:10497000B500635C07008D46B396C60093C6F6FF8C
:10498000FD8EB707000FD58FF1BF135755011207E2
:104990003317E8001347F7FF7D8FB707000FD98F54
:1049A000D1B7EFB2EFF8411185451305D00302C22C
:1049B00002C402C6A523B7F7FF1F83A747703707B6
:1049C00036201307075093F7F7F06385E716636CFB
:1049D000F70237073120130707506387E720636B1F
:1049E000F7003707302013070750638FE71E410198
:1049F0006FB04FF637073220130707506384E71C68
:104A000037073320CDB737073A2013070750638D98
:104A1000E70A6361F7063707372013070750E39863
:104A2000E7FCB7140140E177130480049387077013
:104A30004C00138504807C8222C6EFF09FD293073E
:104A400090EF4C00138504C07C8222C6EFF07FD12A
:104A5000FD574C00371501407C8222C6EFF07FD015
:104A60009307C0077C8222C64C0013850440EFF0F8
:104A70005FCFB5BF37073B20130707506387E710A9
:104A800037073D2013070750E393E7F68545216577
:104A9000EFF01FE237140140E1774C00130504806A
:104AA000930480047C8226C6EFF0BFCB91477C82C2
:104AB0004C0093078002130504C03EC6EFF07FCA86
:104AC0008D679387873F81A085452165EFF05FDE85
:104AD00037140140E977938707804C001305048061
:104AE000930480047C8226C6EFF0BFC791477C8286
:104AF0004C0093078002130504C03EC6EFF07FC64A
:104B000089679387A7F34C00130504C07C8226C6EF
:104B1000EFF03FC5FD574C00371501407C8226C69B
:104B2000EFF03FC49307F0077C8226C64C001305C4
:104B3000044035BF37140140930700104C001305A3
:104B40000480930480047C8226C6EFF09FC19147C5
:104B50007C824C0093078002130504C03EC6EFF030
:104B60005FC0930700E07C824C00130504C026C69A
:104B7000EFF03FBFFD574C00371501407C8226C641
:104B8000EFF03FBE9307C00745B785452165EFF0BD
:104B90003FD237140140E1774C00130504809304A1
:104BA00080047C8226C6EFF0DFBB91477C824C00FC
:104BB00093078002130504C03EC6EFF09FBA930727
:104BC000802191B79147371401407C824C009307B4
:104BD0008002130504C03EC6EFF0BFB8930700E0A3
:104BE0007C829304800449B78967FD17130480040D
:104BF0004C00371501407C8222C6EFF09FB6930728
:104C0000C007371501407C8222C64C0013050540C1
:104C1000B9BDEFB2EFD1B757004093870740854544
:104C2000631BF50037052000B926814537052000B4
:104C300099266FB02FD237054000352E81453705B4
:104C40004000FDB7EFB2CFCE797146212A846808C3
:104C50002EC63124925737470F001307072433D746
:104C6000E702C204C18093F404FCC204B786930334
:104C7000C1809386F66FB24542074183D98C63F4B5
:104C8000F6001307C00346A0162061661306066AE5
:104C9000C206C182F99AC206C18216A09441636914
:104CA000D6048606B3D7D702114693960701C18270
:104CB000B68763F3C6009147C207C1830507420761
:104CC00041831AB05EAC1E20DA21B62593E71700A7
:104CD0001EA01E20558FC207C18393F757BFD98FDF
:104CE0001EA09A25DE25D98F1EA445616FB08FC600
:104CF000EA2131667D166319C5020D46B386C602E8
:104D0000B3D7D702C207C1839396470199E293E7CD
:104D10001700A166D58F9306C0123307D7029306FA
:104D2000803E3347D70259BF6546B386C602B3D724
:104D3000D7029166C207C183D58FF9B71E2189C5F5
:104D400093E717001EA18280C207C183F99BC207A7
:104D5000C183CDBF5E2101C6DD8D4EA1828093C58A
:104D6000F5FFFD8DDDBF0EA982800A291375F50FB1
:104D70008280411102C62AC6B247BE952EC6B247EE
:104D80008A2341018280411102C402C693D7C50122
:104D90002AC63EC4A247A205A18199CBB247D1073A
:104DA0003EC6B247884341016D8D3335A0008280F5
:104DB000B247C181E107EDB75E215A29C2076D8F65
:104DC000C18309CB13D505017D8D1375057033356E
:104DD000A00082800145828093C5F5FFC205C18194
:104DE0004EA9828023AAA184828003A7418585479A
:104DF00014216310F7021C31639CE7023C219607E3
:104E000093E707F837E700E093F7F70F36972300AB
:104E1000F740054793D756003317D700544189CE42
:104E2000938707048A07B7E600E0B69798C38280A5
:104E3000EDF33C219607F9B793870706B7E600E044
:104E40008A07B69798C30F1000008280B7160240F9
:104E5000DC4251777D17F98F5D8DC8C2828037178C
:104E600002405C439146B18B6385D700A1466382C3
:104E7000D706B7177A00938707201CC13716024060
:104E80005C4237070020130707059183BD8BBA9753
:104E900094231C41B3D7D7005CC15442A1829D8AA0
:104EA000BA969422B3D6D70014C55442AD829D8AD7
:104EB00036971823B3D7E7005CC5584239839376F9
:104EC00037001387818036971823B3D7E7021CC9B0
:104ED00082805C435843C166C983BD8B758F890747
:104EE000C5466393D700C94701EF37470240032700
:104EF0000780418B09CF37177A001307072021A8B5
:104F00003717024058439316E700E3D606FE3717DB
:104F10003D0013070790B387E70285B799C5371798
:104F200002401C4F5D8D08CF8280B7170240984F1A
:104F30001345F5FF798D88CF828099C537170240D8
:104F40005C4F5D8D48CF8280B7170240D84F134524
:104F5000F5FF798DC8CF828099C5371702405C472D
:104F60005D8D48C78280B7170240D8471345F5FFCB
:104F7000798DC8C7828099C5371702401C4B5D8D5B
:104F800008CB8280B7170240984B1345F5FF798D07
:104F900088CB8280EFB2CF991A29F577FD17F98F68
:104FA000FA2101112A84D98F1EA99A25DE215625BE
:104FB000AE84D98FBA25D98F7D771307379F758F28
:104FC000D98F5EA55E29DA25C207C18393F7F7CF93
:104FD000D98F5EA96800EFF09FE8B747014093873B
:104FE00007806316F404E2476545B335F502904047
:104FF00081460A063305F5023124930640063357ED
:10500000D502120793574700B387F6021D8D9317F9
:105010004500138527039307F06363FCA70013057E
:105020000701420541810AA405616FB0AF92D247E2
:1050300065BF3355D502598DEDB791C55E2509671A
:10504000D98F5EA582805A25F977FD17F98FD5BFD4
:1050500013F7F50F85471583B395B7006319F7006C
:105060009307C500984301CED98D8CC382808946B1
:1050700093074501E318D7FE93070501E5B793C5EC
:10508000F5FFF98DDDB793F5F51F4EA182804A211A
:105090001375F51F82800A216D8D3335A000828043
:1050A00013F7F50F85461583B397B6006311D70242
:1050B0005A25F98F1A2101454207418381CB0545C5
:1050C000A181B315B5006D8F3335E000828089462C
:1050D0006314D7001A29F1BF5A29E1BFB70700208E
:1050E00083A7470C37177A0013070720B3D7E702C7
:1050F00093F7F70F238DF1841307803EB387E70200
:10510000239CF1848280EFB2AF82AA8411650111E1
:1051100085451105EFF09FE0930700207C8237144E
:1051200001408D473EC44C00E147130504803EC654
:10513000EFF02FE3930700407C824C00914713056A
:1051400004803EC637440140EFF0AFE1B7070C00E2
:105150000C08130504803ECC26C802CA231E010099
:10516000EFF05FE3854513050480EFF01FED056167
:105170006FA05FFEEFA23FFAB7440140AE893289CB
:10518000014493840480634524014A856FA0FFFB9A
:10519000930500042685EFF01FF07DD9B3878900C1
:1051A0008385070026850504C205C181EFF0BFEDA8
:1051B000D9BF1387C1801C439386C1CF3E95636BD3
:1051C000D500B72600209386060063E5A60008C335
:1051D0003E858280FD57EDBF11CE93070002918F6F
:1051E000635BF000B395C500B357F5003316C500F7
:1051F000DD8D32858280930506FE0146B315B5002C
:105200003285CDBFB687B2882A832E88639B061469
:1052100063F8C50A4167636BE61AB707000163606C
:10522000F63493568601E14717270000130707F964
:1052300036971823BA97130700021D8F19CB33989E
:10524000E500B357F500B318E60033E80701331360
:10525000E50013D608013355C80293960801C182B0
:10526000935703013377C802B385A6024207336818
:10527000F700637AB80046989307F5FF6364180156
:105280006365B8303E853308B8403357C8024203DF
:10529000135303013378C802B386E6024208336829
:1052A0006800637BD80046989307F7FF6365180191
:1052B00079176363D8003E874205598D8145828006
:1052C00001E60547B358C702416763E8E80EB70730
:1052D000000163EAF82893D68801E1471727000008
:1052E0001307C7ED36971423BE9693070002958FD8
:1052F000FDE7939E08013387154113DF080193DE14
:105300000E018545935703013355E7033377E703D0
:10531000B306D5034207D98F63FAD700C6971307A0
:10532000F5FF63E4170163E5D7263A85958F33D7F8
:10533000E703420313530301B3F7E703B30ED703A5
:10534000C207B3E7670063FBD701C6979306F7FF71
:1053500063E51701791763E3D70136874205598D55
:10536000828063E1D504C16763E1F604B7070001F9
:1053700063E3F61E13D786016148972700009387E1
:10538000E7E3BA979823130E00024297330EEE40DC
:10539000631A0E0C63EDB61C3335C50013451500BA
:1053A000814582808145014582809307F00F63F338
:1053B000D71C13D786002148C9B71307F00FC6863C
:1053C000E37E17F193D68800A14709BF1307F00FBA
:1053D000B286E37BC7E493568600A147B1B5B39884
:1053E000F80033D6D50013DF0801335EE6033397A8
:1053F000F500B356D500558F939E080193DE0E013C
:105400003313F50093550701B376E603B387CE0354
:10541000C206CD8E63FBF600C6961306FEFF63E45C
:10542000161763F2F616791EC6969D8E33D6E603DE
:1054300093170701C183B3F6E6033385CE021397B2
:1054400006015D8F637BA70046979307F6FF6368AD
:1054500017136376A7127916469793150E01098FD5
:10546000D18D4DB5B357E600B396C601DD8E33D36B
:10547000E50013DF0601B357E303939E060193DEB5
:105480000E013398C5013357E5003368070193587F
:1054900008013316C6013373E303B385FE024203EA
:1054A000B368130163FBB800B6981387F7FF63EA8C
:1054B000D80C63F8B80CF917B698B388B84033D74E
:1054C000E803420813580801B3F8E8033383EE02F7
:1054D000C208B3E5080163FB6500B6951308F7FF42
:1054E00063EDD50863FB65087917B695C207416F70
:1054F000D98F1307FFFFB3F6E70093D80701718F29
:105500004182B38EE602B3856540B386C60213D8E6
:105510000E013387E802BA96C2963386C80263F357
:10552000E6007A9693D80601469663E2C502638543
:10553000C5003E858145828041677D17F98EC20690
:10554000B3FEEE003315C501F696E374D5FE138560
:10555000F7FF8145828013D70601414839BD935634
:105560000601C147D1B193D60801C14785BB81452A
:10557000054582803687014809B5428785BF3E864A
:10558000E9BDBA871DBF328E4DB579154698E5B98C
:105590007915C69761BB01476314E6000145828017
:1055A000B307E5000507B386E5009C2383C6F6FF35
:1055B000E384D7FE3385D7408280B3C7A5008D8BA7
:1055C0003307C50081E78D4763EDC700AA87637E77
:1055D000E508942185078505A38FD7FEE3EBE7FE59
:1055E000828093763500AA8789CA9421850785052C
:1055F000A38FD7FE93F63700C5BF9376C7FF1386F8
:1056000006FE63F0C70683A3050083A2450083AFAF
:10561000850003AFC50083AE050103AE450103A3BA
:10562000850183A8C5019385450223A0770003A8BF
:10563000C5FF23A2570023A4F70123A6E70123A84F
:10564000D70123AAC70123AC670023AE17019387B4
:10565000470223AE07FF75B790419107910523AE2E
:10566000C7FEE3EBD7FEE3E6E7F6828039713EDA68
:105670002ED232D436D63AD842DC46DE9387018128
:1056800022CC804326CA06CEAA8409C41C4C99E3C6
:105690002285252B0C4454102686228536C6EF0021
:1056A0003017F2406244D24421618280011126CA3F
:1056B0004AC806CE22CC4EC652C4AA842E8901C541
:1056C0001C4D91E319239C4C804499E32685F529D0
:1056D00097270000938787C0631BF402C0405E24B5
:1056E000A18BB1C71C48A1C7FD59294A1C44834559
:1056F0000900FD17B1E91CC463DD07062286A94530
:105700002685D120FD576308F502294535A0972746
:1057100000009387A7BE6314F4008044C9B797279D
:1057200000009387A7B9E31CF4FAC0444DBFA285DB
:105730002685812A55D97D55F2406244D24442499A
:10574000B249224A056182801CC4050963D707005B
:10575000184C63CAE700638845011C401387170093
:1057600018C08CA361B722862685B128E31035F9CD
:10577000D9B71C401387170018C0294798A371B7E1
:1057800093870181AA8588436FF05FF2AA87850716
:1057900003C7F7FF6DFF3385A7407D15828015C2D3
:1057A0007D160147B307E500B386E5009C239422EC
:1057B0006396D7006304C7000507EDF73385D7402C
:1057C000828001458280011122CC26CA4AC806CEB9
:1057D0004EC6AA842E89328401C51C4D91E3F5265C
:1057E00097270000938787AF6317F406C0401C4CCF
:1057F0001CC45E24A18BC1C31C48B5CF1C48084003
:105800009379F90F1379F90F1D8D5C486346F50004
:10581000A2852685692C25E51C440505FD171CC4B9
:105820001C401387170018C0238037015C48638829
:10583000A7005E24858B81CBA9476316F900A2855A
:105840002685B5240DEDF24062444A85D244424992
:10585000B2490561828097270000938727AA6314C5
:10586000F400804469B797270000938727A5E310C9
:10587000F4F8C044ADBFA2852685212041D17D59D1
:10588000D9B741119387018126C2844322C44AC0FB
:1058900006C62A892E8489C49C4C99E32685352620
:1058A00097270000938787A3631BF402C040031768
:1058B000C40093170701C18393F68700ADEA93F6FE
:1058C000070195EEA5472320F900136707045AA4A2
:1058D0007D55B2402244924402494101828097277B
:1058E00000009387A7A16314F4008044C9B79727E9
:1058F00000009387A79CE31CF4FAC0444DBF918B32
:105900009DC34C5889C9930744046384F5004A85B4
:10591000292B232A04025E242322040093F7B7FDD7
:105920005EA41C481CC05E2493E787005EA41C484C
:1059300099EB5E241307002093F707286385E7009F
:10594000A2854A8591295E2413F717001DC35C4880
:1059500023240400B307F0401CCC1C480145B5FBD0
:105960008317C40013F707082DD793E707045EA435
:1059700085B7898B014791E3584818C4F9BFDE25E4
:10598000011122CC26CA06CE4AC84EC613F787009C
:10599000AA842E8479EBD841634DE000B841634A74
:1059A000E0000145F2406244D2444249B2490561F7
:1059B000828058547DD703A904009396370123A011
:1059C000040063DB060670485E24918B99C75C4037
:1059D0001D8E5C5899C33C401D8E5C540C50814612
:1059E00026858297FD575A24631DF5009440F5479C
:1059F00063E8D706B70740208507B3D7D700858B64
:105A0000A5C31C48232204001CC09317370163D888
:105A10000700FD576314F5009C4091E368C84C589B
:105A200023A02401BDDD930744046384F50026858B
:105A3000ED2E232A0402B5B70C5001468546268573
:105A40000297FD572A86E311F5F89C40B5DF7547AC
:105A50006385E70059476393E70423A0240191B7C6
:105A6000136707045AA47D5535BF83A90501E38A4E
:105A700009F203A905008D8B23A0350133093941B3
:105A8000014791E3D84918C4E35D20F11C540C5040
:105A9000CA864E86268582976347A0005E2493E7D8
:105AA00007045EA4C9B7AA993309A940F1BF9C496C
:105AB000A5C3011122CC06CE2A8411C51C4D81E755
:105AC0002EC62122B2459727000093872781639C29
:105AD000F5004C408397C5009DC722856244F24083
